{
  "contractName": "Faucet",
  "abi": [
    {
      "inputs": [],
      "stateMutability": "nonpayable",
      "type": "constructor"
    },
    {
      "anonymous": false,
      "inputs": [
        {
          "indexed": false,
          "internalType": "address",
          "name": "funder",
          "type": "address"
        },
        {
          "indexed": false,
          "internalType": "uint256",
          "name": "value",
          "type": "uint256"
        }
      ],
      "name": "funderAdded",
      "type": "event"
    },
    {
      "anonymous": false,
      "inputs": [
        {
          "indexed": false,
          "internalType": "address",
          "name": "receiver",
          "type": "address"
        },
        {
          "indexed": false,
          "internalType": "uint256",
          "name": "value",
          "type": "uint256"
        }
      ],
      "name": "withdrawal",
      "type": "event"
    },
    {
      "inputs": [],
      "name": "numOfFunders",
      "outputs": [
        {
          "internalType": "uint256",
          "name": "",
          "type": "uint256"
        }
      ],
      "stateMutability": "view",
      "type": "function",
      "constant": true
    },
    {
      "inputs": [],
      "name": "owner",
      "outputs": [
        {
          "internalType": "address",
          "name": "",
          "type": "address"
        }
      ],
      "stateMutability": "view",
      "type": "function",
      "constant": true
    },
    {
      "stateMutability": "payable",
      "type": "receive",
      "payable": true
    },
    {
      "inputs": [
        {
          "internalType": "address",
          "name": "newOwner",
          "type": "address"
        }
      ],
      "name": "transferOwnership",
      "outputs": [],
      "stateMutability": "nonpayable",
      "type": "function"
    },
    {
      "inputs": [],
      "name": "addFunds",
      "outputs": [],
      "stateMutability": "payable",
      "type": "function",
      "payable": true
    },
    {
      "inputs": [
        {
          "internalType": "uint256",
          "name": "index",
          "type": "uint256"
        }
      ],
      "name": "getFunderAtIndex",
      "outputs": [
        {
          "internalType": "address",
          "name": "",
          "type": "address"
        }
      ],
      "stateMutability": "view",
      "type": "function",
      "constant": true
    },
    {
      "inputs": [],
      "name": "getAllFunders",
      "outputs": [
        {
          "internalType": "address[]",
          "name": "",
          "type": "address[]"
        }
      ],
      "stateMutability": "view",
      "type": "function",
      "constant": true
    },
    {
      "inputs": [
        {
          "internalType": "uint256",
          "name": "_amount",
          "type": "uint256"
        }
      ],
      "name": "withdraw",
      "outputs": [],
      "stateMutability": "nonpayable",
      "type": "function"
    }
  ],
  "bytecode": "0x608060405234801561001057600080fd5b50336000806101000a81548173ffffffffffffffffffffffffffffffffffffffff021916908373ffffffffffffffffffffffffffffffffffffffff160217905550336000806101000a81548173ffffffffffffffffffffffffffffffffffffffff021916908373ffffffffffffffffffffffffffffffffffffffff160217905550610a80806100a06000396000f3fe6080604052600436106100745760003560e01c8063a26759cb1161004e578063a26759cb146100ff578063af7f2c9b14610109578063c218deca14610134578063f2fde38b146101715761007b565b80632e1a7d4d146100805780636fbbb55d146100a95780638da5cb5b146100d45761007b565b3661007b57005b600080fd5b34801561008c57600080fd5b506100a760048036038101906100a2919061062a565b61019a565b005b3480156100b557600080fd5b506100be61026a565b6040516100cb9190610747565b60405180910390f35b3480156100e057600080fd5b506100e9610364565b6040516100f69190610778565b60405180910390f35b610107610388565b005b34801561011557600080fd5b5061011e6104db565b60405161012b91906107a2565b60405180910390f35b34801561014057600080fd5b5061015b6004803603810190610156919061062a565b6104e1565b6040516101689190610778565b60405180910390f35b34801561017d57600080fd5b50610198600480360381019061019391906107e9565b61051e565b005b8067016345785d8a00008111156101e6576040517f08c379a00000000000000000000000000000000000000000000000000000000081526004016101dd90610899565b60405180910390fd5b7f5a6b26bafd3957bf06ea3b4915f51221953ed272573c779820e6e39df3e646cf33836040516102179291906108b9565b60405180910390a13373ffffffffffffffffffffffffffffffffffffffff166108fc839081150290604051600060405180830381858888f19350505050158015610265573d6000803e3d6000fd5b505050565b6060600060015467ffffffffffffffff81111561028a576102896108e2565b5b6040519080825280602002602001820160405280156102b85781602001602082028036833780820191505090505b50905060005b60015481101561035c576002600082815260200190815260200160002060009054906101000a900473ffffffffffffffffffffffffffffffffffffffff1682828151811061030f5761030e610911565b5b602002602001019073ffffffffffffffffffffffffffffffffffffffff16908173ffffffffffffffffffffffffffffffffffffffff168152505080806103549061096f565b9150506102be565b508091505090565b60008054906101000a900473ffffffffffffffffffffffffffffffffffffffff1681565b7f2a954b77e9db4e7a6d16891d8c319485208a84ec4a73790b2071d909bc46987333346040516103b99291906108b9565b60405180910390a1600360003373ffffffffffffffffffffffffffffffffffffffff1673ffffffffffffffffffffffffffffffffffffffff16815260200190815260200160002060009054906101000a900460ff166104d9576001600360003373ffffffffffffffffffffffffffffffffffffffff1673ffffffffffffffffffffffffffffffffffffffff16815260200190815260200160002060006101000a81548160ff02191690831515021790555060006001600081548092919061047f9061096f565b919050559050336002600083815260200190815260200160002060006101000a81548173ffffffffffffffffffffffffffffffffffffffff021916908373ffffffffffffffffffffffffffffffffffffffff160217905550505b565b60015481565b60006002600083815260200190815260200160002060009054906101000a900473ffffffffffffffffffffffffffffffffffffffff169050919050565b60008054906101000a900473ffffffffffffffffffffffffffffffffffffffff1673ffffffffffffffffffffffffffffffffffffffff163373ffffffffffffffffffffffffffffffffffffffff16146105ac576040517f08c379a00000000000000000000000000000000000000000000000000000000081526004016105a390610a2a565b60405180910390fd5b806000806101000a81548173ffffffffffffffffffffffffffffffffffffffff021916908373ffffffffffffffffffffffffffffffffffffffff16021790555050565b600080fd5b6000819050919050565b610607816105f4565b811461061257600080fd5b50565b600081359050610624816105fe565b92915050565b6000602082840312156106405761063f6105ef565b5b600061064e84828501610615565b91505092915050565b600081519050919050565b600082825260208201905092915050565b6000819050602082019050919050565b600073ffffffffffffffffffffffffffffffffffffffff82169050919050565b60006106ae82610683565b9050919050565b6106be816106a3565b82525050565b60006106d083836106b5565b60208301905092915050565b6000602082019050919050565b60006106f482610657565b6106fe8185610662565b935061070983610673565b8060005b8381101561073a57815161072188826106c4565b975061072c836106dc565b92505060018101905061070d565b5085935050505092915050565b6000602082019050818103600083015261076181846106e9565b905092915050565b610772816106a3565b82525050565b600060208201905061078d6000830184610769565b92915050565b61079c816105f4565b82525050565b60006020820190506107b76000830184610793565b92915050565b6107c6816106a3565b81146107d157600080fd5b50565b6000813590506107e3816107bd565b92915050565b6000602082840312156107ff576107fe6105ef565b5b600061080d848285016107d4565b91505092915050565b600082825260208201905092915050565b7f43616e206e6f74207769746864726177206d6f7265207468616e20302e31206560008201527f7468657220000000000000000000000000000000000000000000000000000000602082015250565b6000610883602583610816565b915061088e82610827565b604082019050919050565b600060208201905081810360008301526108b281610876565b9050919050565b60006040820190506108ce6000830185610769565b6108db6020830184610793565b9392505050565b7f4e487b7100000000000000000000000000000000000000000000000000000000600052604160045260246000fd5b7f4e487b7100000000000000000000000000000000000000000000000000000000600052603260045260246000fd5b7f4e487b7100000000000000000000000000000000000000000000000000000000600052601160045260246000fd5b600061097a826105f4565b91507fffffffffffffffffffffffffffffffffffffffffffffffffffffffffffffffff8214156109ad576109ac610940565b5b600182019050919050565b7f4f6e6c79206f776e65722063616e2063616c6c20746869732066756e6374696f60008201527f6e00000000000000000000000000000000000000000000000000000000000000602082015250565b6000610a14602183610816565b9150610a1f826109b8565b604082019050919050565b60006020820190508181036000830152610a4381610a07565b905091905056fea264697066735822122013d36b38d0c03ee85bc0485eb684efc01922d64541d3567ec38d914ae65e3c0864736f6c634300080c0033",
  "immutableReferences": {},
  "source": "//SPDX-License-Identifier: MIT\n\npragma solidity >=0.4.22 <0.9.0;\nimport \"./Owned.sol\";\n\nimport \"./IFaucet.sol\";\n\ncontract Faucet is Owned, IFaucet {\n    uint256 public numOfFunders;\n    mapping(uint256 => address) private funders;\n    mapping(address => bool) private isExist;\n    // this event emits when someone call the Function addFunds(),\n    //this will give you the address and value\n    event funderAdded(address funder, uint256 value);\n\n    event withdrawal(address receiver, uint256 value);\n\n    constructor() {\n        owner = msg.sender;\n    }\n\n    modifier limitWithdraw(uint256 withdrawAmount) {\n        require(\n            withdrawAmount <= 0.1 ether,\n            \"Can not withdraw more than 0.1 ether \"\n        );\n        _;\n    }\n\n    function transferOwnership(address newOwner) external onlyOwner {\n        owner = newOwner;\n    }\n\n    // this is payable function which helps to receive ethers into this contract account\n    receive() external payable {}\n\n    // this function helps to receive ether to this contract and also add the funder to a mapping\n    // funders and store the information\n    function addFunds() external payable override {\n        emit funderAdded(msg.sender, msg.value);\n        if (!isExist[msg.sender]) {\n            isExist[msg.sender] = true;\n            uint256 index = numOfFunders++;\n            funders[index] = msg.sender;\n        }\n    }\n\n    // This will give you the funder at specific index\n    function getFunderAtIndex(uint256 index) external view returns (address) {\n        return funders[index];\n    }\n\n    // This will give you all funders who funded this contract\n    function getAllFunders() external view returns (address[] memory) {\n        address[] memory _funders = new address[](numOfFunders);\n        for (uint256 i = 0; i < numOfFunders; i++) {\n            _funders[i] = funders[i];\n        }\n        return _funders;\n    }\n\n    // this will withdraw the ethereum from contract.\n    function withdraw(uint256 _amount)\n        external\n        override\n        limitWithdraw(_amount)\n    {\n        emit withdrawal(msg.sender, _amount);\n        payable(msg.sender).transfer(_amount);\n    }\n}\n",
  "sourcePath": "/Users/saikiranbejjaniwar/Desktop/PROd/udemy/second/faucet2/contracts/Faucet.sol",
  "compiler": {
    "name": "solc",
    "version": "0.8.12+commit.f00d7308.Emscripten.clang"
  },
  "schemaVersion": "3.4.6",
  "updatedAt": "2022-06-04T09:19:51.754Z",
  "networkType": "ethereum",
  "devdoc": {
    "kind": "dev",
    "methods": {},
    "version": 1
  },
  "userdoc": {
    "kind": "user",
    "methods": {},
    "version": 1
  }
}