{
  "contractName": "Faucet",
  "abi": [
    {
      "anonymous": false,
      "inputs": [
        {
          "indexed": false,
          "internalType": "address",
          "name": "Funder",
          "type": "address"
        },
        {
          "indexed": false,
          "internalType": "uint256",
          "name": "value",
          "type": "uint256"
        }
      ],
      "name": "funderAdded",
      "type": "event"
    },
    {
      "inputs": [],
      "name": "numOfFunders",
      "outputs": [
        {
          "internalType": "uint256",
          "name": "",
          "type": "uint256"
        }
      ],
      "stateMutability": "view",
      "type": "function",
      "constant": true
    },
    {
      "stateMutability": "payable",
      "type": "receive",
      "payable": true
    },
    {
      "inputs": [],
      "name": "addFunds",
      "outputs": [],
      "stateMutability": "payable",
      "type": "function",
      "payable": true
    },
    {
      "inputs": [
        {
          "internalType": "uint256",
          "name": "index",
          "type": "uint256"
        }
      ],
      "name": "getFunderAtIndex",
      "outputs": [
        {
          "internalType": "address",
          "name": "",
          "type": "address"
        }
      ],
      "stateMutability": "view",
      "type": "function",
      "constant": true
    },
    {
      "inputs": [],
      "name": "getAllFunders",
      "outputs": [
        {
          "internalType": "address[]",
          "name": "",
          "type": "address[]"
        }
      ],
      "stateMutability": "view",
      "type": "function",
      "constant": true
    },
    {
      "inputs": [
        {
          "internalType": "uint256",
          "name": "_amount",
          "type": "uint256"
        }
      ],
      "name": "withdraw",
      "outputs": [],
      "stateMutability": "nonpayable",
      "type": "function"
    }
  ],
  "bytecode": "0x608060405234801561001057600080fd5b506106fb806100206000396000f3fe60806040526004361061004e5760003560e01c80632e1a7d4d1461005a5780636fbbb55d14610083578063a26759cb146100ae578063af7f2c9b146100b8578063c218deca146100e357610055565b3661005557005b600080fd5b34801561006657600080fd5b50610081600480360381019061007c9190610433565b610120565b005b34801561008f57600080fd5b5061009861016a565b6040516100a59190610550565b60405180910390f35b6100b6610263565b005b3480156100c457600080fd5b506100cd6103b5565b6040516100da9190610581565b60405180910390f35b3480156100ef57600080fd5b5061010a60048036038101906101059190610433565b6103bb565b60405161011791906105ab565b60405180910390f35b3373ffffffffffffffffffffffffffffffffffffffff166108fc829081150290604051600060405180830381858888f19350505050158015610166573d6000803e3d6000fd5b5050565b60606000805467ffffffffffffffff811115610189576101886105c6565b5b6040519080825280602002602001820160405280156101b75781602001602082028036833780820191505090505b50905060005b60005481101561025b576001600082815260200190815260200160002060009054906101000a900473ffffffffffffffffffffffffffffffffffffffff1682828151811061020e5761020d6105f5565b5b602002602001019073ffffffffffffffffffffffffffffffffffffffff16908173ffffffffffffffffffffffffffffffffffffffff1681525050808061025390610653565b9150506101bd565b508091505090565b7f2a954b77e9db4e7a6d16891d8c319485208a84ec4a73790b2071d909bc469873333460405161029492919061069c565b60405180910390a1600260003373ffffffffffffffffffffffffffffffffffffffff1673ffffffffffffffffffffffffffffffffffffffff16815260200190815260200160002060009054906101000a900460ff166103b3576001600260003373ffffffffffffffffffffffffffffffffffffffff1673ffffffffffffffffffffffffffffffffffffffff16815260200190815260200160002060006101000a81548160ff021916908315150217905550600080600081548092919061035990610653565b919050559050336001600083815260200190815260200160002060006101000a81548173ffffffffffffffffffffffffffffffffffffffff021916908373ffffffffffffffffffffffffffffffffffffffff160217905550505b565b60005481565b60006001600083815260200190815260200160002060009054906101000a900473ffffffffffffffffffffffffffffffffffffffff169050919050565b600080fd5b6000819050919050565b610410816103fd565b811461041b57600080fd5b50565b60008135905061042d81610407565b92915050565b600060208284031215610449576104486103f8565b5b60006104578482850161041e565b91505092915050565b600081519050919050565b600082825260208201905092915050565b6000819050602082019050919050565b600073ffffffffffffffffffffffffffffffffffffffff82169050919050565b60006104b78261048c565b9050919050565b6104c7816104ac565b82525050565b60006104d983836104be565b60208301905092915050565b6000602082019050919050565b60006104fd82610460565b610507818561046b565b93506105128361047c565b8060005b8381101561054357815161052a88826104cd565b9750610535836104e5565b925050600181019050610516565b5085935050505092915050565b6000602082019050818103600083015261056a81846104f2565b905092915050565b61057b816103fd565b82525050565b60006020820190506105966000830184610572565b92915050565b6105a5816104ac565b82525050565b60006020820190506105c0600083018461059c565b92915050565b7f4e487b7100000000000000000000000000000000000000000000000000000000600052604160045260246000fd5b7f4e487b7100000000000000000000000000000000000000000000000000000000600052603260045260246000fd5b7f4e487b7100000000000000000000000000000000000000000000000000000000600052601160045260246000fd5b600061065e826103fd565b91507fffffffffffffffffffffffffffffffffffffffffffffffffffffffffffffffff82141561069157610690610624565b5b600182019050919050565b60006040820190506106b1600083018561059c565b6106be6020830184610572565b939250505056fea26469706673582212201b745221984d68c6099083d6377801244f9b3fd8176c99c5b79c0ab4187f9f6564736f6c634300080c0033",
  "immutableReferences": {},
  "source": "//SPDX-License-Identifier: MIT\n\npragma solidity ^0.8.9;\n\ncontract Faucet {\n    uint256 public numOfFunders;\n    mapping(uint256 => address) private funders;\n    mapping(address => bool) isExist;\n\n    // this is payable function which helps to receive ethers into this contract account\n    receive() external payable {}\n\n    // this event emits when someone call the Function addFunds(),\n    //this will give you the address and value\n    event funderAdded(address Funder, uint256 value);\n\n    // this function helps to receive ether to this contract and also add the funder to a mapping\n    // funders and store the information\n    function addFunds() external payable {\n        emit funderAdded(msg.sender, msg.value);\n        if (!isExist[msg.sender]) {\n            isExist[msg.sender] = true;\n            uint256 index = numOfFunders++;\n            funders[index] = msg.sender;\n        }\n    }\n\n    // This will give you the funder at specific index\n    function getFunderAtIndex(uint256 index) external view returns (address) {\n        return funders[index];\n    }\n\n    // This will give you all funders who funded this contract\n    function getAllFunders() external view returns (address[] memory) {\n        address[] memory _funders = new address[](numOfFunders);\n\n        for (uint256 i = 0; i < numOfFunders; i++) {\n            _funders[i] = funders[i];\n        }\n        return _funders;\n    }\n\n    // this will withdraw the ethereum from contract.\n    function withdraw(uint256 _amount) external {\n        payable(msg.sender).transfer(_amount);\n    }\n}\n",
  "sourcePath": "/Users/saikiranbejjaniwar/Desktop/PROd/udemy/second/faucet2/contracts/Faucet.sol",
  "compiler": {
    "name": "solc",
    "version": "0.8.12+commit.f00d7308.Emscripten.clang"
  },
  "schemaVersion": "3.4.6",
  "updatedAt": "2022-05-26T08:10:15.671Z",
  "networkType": "ethereum",
  "devdoc": {
    "kind": "dev",
    "methods": {},
    "version": 1
  },
  "userdoc": {
    "kind": "user",
    "methods": {},
    "version": 1
  }
}